:060000000A128A11142906
:100200008A010A140F3982073F3406345B344F34B5
:1002100066346D347D3407347F346F3477347C3406
:1002200039345E34793471342F21282140210A3049
:10023000F000F0308800031383124F2106185A2172
:1002400086185E21652108080021870075211D2977
:10025000031383160F138F160F120F1408000317C2
:10026000831688018901031383168501880187019C
:100270000614861403138312850188018701080080
:100280000313831681128111011581100110492178
:100290000800031383123C3081000B1108000B1D72
:1002A0004F294921F00B59296221850A051C58293B
:1002B0008812080006185A29880A080086185E293C
:1002C000880308000A30F0000800051E682985012F
:1002D000081E7429881F6D296F29880174298801D7
:1002E0000814881408158815080008080502031961
:0E02F0007A297E29850149216221881608009D
:04400E00C430FF3F7C
:00000001FF
